:020000005E2A76
:10000800FF00030E8301031790000A080313EF0093
:100018008A017008A4007108A3007208A20074087D
:10002800A1007D08A0000408A5000B1D8828003049
:100038002B06031D212800302A06031D3328031729
:10004800A501EF2170088312A8007108A9007008A3
:100058000317A5007108A6003030A700152200304C
:100068002B06031D392801302A06031D4C280130B0
:100078000317A500EF2170088312AE007108AF00C6
:1000880070080317A5007108A6003130A7001522D3
:1000980000302B06031D522802302A06031D65284E
:1000A80002300317A500EF2170088312AC00710815
:1000B800AD0070080317A5007108A6003230A7002C
:1000C800152200302B06031D6B2803302A06031D5A
:1000D800812803300317A500EF2170088312A600BA
:1000E8007108A70070080317A5007108A60033302F
:1000F800A7001522AA01AB018428AA0A0319AB0A92
:100108008B160B11BA3081002408F0002308F10087
:100118002208F2002108F4002008FD0025088400C8
:100128006F088A000317100E8300FF0E7F0E090068
:1001380083120313F801F9011030FC00710DF80D5A
:10014800F90D7408F8027508031C750FF9020318F5
:10015800B4287408F80775080318750FF907031011
:0A016800F00DF10DFC0BA2280800B9
:10017200831603139818BF280000B92883120317A7
:08018200200803139900080096
:10018A0083120317A301053023020318D328230877
:10019A002207840020308000A30AC82823082207E7
:1001AA0084008001A30323082207A4000A30F40074
:1001BA00F5012008F0002108F1009C207808F000E1
:1001CA007908F1003030F00703172408840070081A
:1001DA0080000A30F400F5012008F0002108F1003F
:1001EA009C2070080317A0007108A1000030710656
:1001FA00031D012900307006031D04290629A303E3
:04020A00D8280800E8
:10020E000E3083120313FD00FD0B0B2900000800B6
:0E021E008312031365088A006408820008003A
:10022C00831203179C019D0117089E0018089F005C
:10023C0080301806F00080307002031D2729003032
:10024C0017020318352901309C0000309D00170857
:10025C00003C9E001808031C013E9F019F021E08D3
:10026C00A0001F08A1001908A200C52006309A00A2
:10027C0000309B001B08003C031D46291A08003C5B
:10028C00031861291A081907F20001301A02F0004C
:10029C000030031C013E1B02F1007008190784009A
:1002AC000008F000720884007008800001309A0287
:1002BC00031C9B03402919088400203080001C0873
:1002CC001D0403197F299A019B011A081907840040
:1002DC000008203A031D76299A0A03199B0A6B29F8
:1002EC0001309A02031C9B031A08190784002D3055
:0402FC008000080076
:100300008312031799011708840000089800180841
:10031000003A031996291808A000B9200317990A72
:0E0320001908170784000008980087290800B4
:10032E003C3083120317A000B92003171508323E84
:10033E0084000008A000B9203B300317A000B920AC
:10034E0003171508F0001608F100F00DF10D7010EE
:10035E007008A03E840000089700840A00089800E8
:10036E005A30990016215A30970080213B30A00058
:04037E00B92008009A
:10038200FF3083120313EC00FF30ED00FF30EE006C
:10039200FF309F01C0309F0483161F179F178312DF
:0403A2001F1408001C
:1003A6000F218A110A128000840AE40A0319E50A59
:0803B600F003031DD329080028
:1003BE0083160313981690308312980083168717AE
:1003CE00071383128C1EEE291A08F000E829080084
:1003DE00831203139F01C0309F0483161F179F17AC
:1003EE00831203172508F000F00D7010F00D701039
:1003FE00F00D7010700803139F041F1407211F15B2
:10040E001F1D0B2A0000072A1F101E08F100F00105
:0C041E0083161E08F0040030F1040800F2
:10042A00831203136A08323E8400031727088000E8
:10043A0003136A08F0006B08F100F00DF10D70105B
:10044A007008A03E84000317250880002608840A45
:10045A008000013003133002F1000030031C013E1A
:10046A003102F20080306B06F000803072067002B2
:10047A00031D412A71086A0203184B2AEA0A031962
:10048A00EB0A6A08F3006B08F4004D2AF301F40141
:10049A007308EA007408EB0000307406031D572A3B
:1004AA0000307306031D5D2A0130E8000030E900C0
:0204BA00080038
:1004BC0083120313A601A701A801A901AA01AB018C
:1004CC00AC01AD01AE01AF012830B000B101193063
:1004DC00831699001815DF210230FB000430FC0054
:1004EC00BA30FD00FD0B782AFC0B782AFB0B782A1E
:1004FC0000008B170B178B16863083168100BA30D1
:10050C008312810083169F01FF30850083128501C1
:10051C00C121E601E701EA01EB01E801E90103135E
:10052C0080306706F00080306B067002031DA02A35
:10053C006A0866020318D42A660803179500031389
:10054C00670803179600972101303002F100003044
:10055C00031C013E3102F20080306706F00080304F
:10056C0072067002031DBC2A710866020318C92AA0
:10057C00E60A0319E70A66080317910003136708D4
:10058C0003179200CC2A031791019201110803134F
:10059C00E600031712080313E700322B80306B06BA
:1005AC00F000803067067002031DDE2A66086A02BE
:1005BC000318222B680869040319222B66080317F9
:1005CC00950003136708031796009721013030023A
:1005DC00F1000030031C013E3102F200803067064E
:1005EC00F000803072067002031DFE2A710866024C
:1005FC0003180B2BE60A0319E70A66080317930086
:10060C0003136708031794000E2B0317930194012F
:10061C0013080313E600031714080313E700003054
:10062C0003171406031D1C2B00301306031D212B6E
:10063C000313E801E901322B3E300317A000B92067
:10064C000317A001B9206830FC00E430FD00FD0B5D
:0C065C002D2BFC0B2D2B0000952A332BBE
:02400E004A2F37
:00000001FF
